:020000040800F2
:10000000A0040020C5010008871400089F13000801
:100010008514000805040008891700080000000086
:100020000000000000000000000000008B14000829
:100030000704000800000000891400088D1400085F
:10004000DF010008DF010008DF010008DF01000810
:10005000DF010008DF010008DF010008DF01000800
:10006000DF010008DF010008DF010008DF010008F0
:10007000DF010008DF010008DF010008DF010008E0
:10008000DF010008DF010008D1020008DF010008DD
:10009000DF010008DF010008DF010008DF010008C0
:1000A000DF010008DF010008DF010008DF010008B0
:1000B000DF010008DF010008DF010008DF010008A0
:1000C000DF010008DF010008DF010008DF01000890
:1000D000DF0100087D170008DF010008DF010008CC
:1000E000DF010008DF010008DF010008DF01000870
:1000F000DF010008DF010008DF010008DF01000860
:10010000DF010008DF010008DF010008DF0100084F
:10011000DF010008DF010008DF010008DF0100083F
:10012000DF010008DF010008DF010008DF0100082F
:10013000DF010008DF010008DF010008DF0100081F
:10014000DF010008DF010008DF010008DF0100080F
:10015000DF010008DF010008DF010008DF010008FF
:10016000DF010008DF010008DF010008DF010008EF
:10017000DF010008DF010008DF01000800000000C7
:10018000DF010008DF010008DF010008DF010008CF
:10019000DF010008DF010008DF010008DF010008BF
:1001A000DF010008DF010008DF010008DFF810D0E0
:1001B00000F07CF800480047C9170008AFF3008042
:1001C000A00400200648804706480047FEE7FEE7F7
:1001D000FEE7FEE7FEE7FEE7FEE7FEE7FEE7FEE7F7
:1001E00011150008AD0100082DE9F05F054600205B
:1001F00092469B4688460646814640241BE0284698
:1002000041464746224600F041F853465A46C01A36
:10021000914110D311461846224600F028F82D1AB5
:1002200067EB01084F4622460120002100F01FF82D
:1002300017EB00094E41201EA4F10104DFDC484603
:1002400031462A464346BDE8F09FD2B201E000F8AD
:10025000012B491EFBD270470022F6E710B513466A
:100260000A4604461946FFF7F0FF204610BD202A33
:1002700004DB203A00FA02F1002070479140C2F1FD
:10028000200320FA03F3194390407047202A04DB2F
:10029000203A21FA02F00021704721FA02F3D040FF
:1002A000C2F120029140084319467047064C074DA1
:1002B00006E0E06840F0010394E807009847103436
:1002C000AC42F6D3FFF776FFC4180008E418000824
:1002D000014800F063B9000018000020464910B53D
:1002E0004A6822F440324A604A6843681A434A60C6
:1002F00001684A6822F480724A6001684A680369AA
:1003000042EA03224A6001684A6822F040724A6069
:1003100001684A6883681A434A6001688A6822F45F
:1003200000628A6001688A68C3681A438A60816AC9
:100330006FF07062D14201688A6822F070628A6050
:1003400001688A680CD0836A1A438A6001688A68E7
:1003500022F040528A6001688A68C36A1A4301E049
:1003600022F040528A6001688A6822F002028A60A4
:1003700001688A68037E42EA43028A6090F820108E
:10038000002901684A680FD042F400624A6001689F
:100390004A6822F460424A6001684A68174C436A1E
:1003A00004EB43331A4301E022F400624A6001681F
:1003B000CA6A22F47002CA620168CA6A838B104C4E
:1003C00004EB03531A43CA6201688A6822F400727C
:1003D0008A6001688A6890F8303042EA43228A6075
:1003E00001688A6822F480628A6001688A684069CC
:1003F00042EA8020886010BD0023014000E0FFFF3A
:100400000000F0FFFEE770477047000078B5002459
:10041000009490F83C20012A19D0012280F83C2059
:100420000A6807230568092A13D9EE680A3A02EB1D
:10043000420293409E43EE600B788A680A3B03EBCE
:1004400043039A400368DD682A43DA6010E0022023
:1004500078BD2E6902EB420293409E432E610B78D9
:100460008A6803EB43039A4003681D692A431A61B3
:100470004A681F23072A13D205686E6B521E02EBCF
:10048000820293409E436E630A8893B20A79521E99
:1004900002EB820293400268556B2B43536327E0C3
:1004A00005680D2A12D22E6BD21F02EB82029340F6
:1004B0009E432E630B790A88DB1F92B203EB830302
:1004C0009A4003681D6B2A431A6311E0EE6A0D3AE5
:1004D00002EB820293409E43EE620B790A880D3B49
:1004E00092B203EB83039A400368DD6A2A43DA621F
:1004F0001B4B0568194A9D420AD10D68122D07D180
:10050000556825F400055560556845F4800555602B
:1005100005689D421DD1134D0B68AB4201D0112BD4
:1005200017D1536823F480035360536843F40003E6
:1005300053600968A9420CD10B490C4A0968B1FB08
:10054000F2F101EB8101490000E0491E0091002910
:10055000FBD180F83C40002078BD00000023014022
:1005600000200140120000101400002040420F0043
:1005700010B500680449884204D1044800F00BF823
:100580000349486010BD0000002101401800002010
:100590000000002070470068C06C704770B50446CA
:1005A000006801684268C1F34001C2F3401251B3D0
:1005B0004AB3216CC90603D4216C41F40071216453
:1005C000816811F0405F17D1217EA9B9C16A11F489
:1005D000700F02D0816849050ED4416821F02001D6
:1005E0004160206C20F480702064206CC00403D42F
:1005F000206C40F0010020642046FFF7B9FF21681D
:100600006FF012000860206801684268C1F3800141
:10061000C2F3C01289B382B3216CC90603D4216C22
:1006200041F400512164816811F4401F1ED1816B97
:1006300011F4401F02D08168490517D4416849056B
:1006400014D4816811F0405F10D1217E71B94168E6
:1006500021F080014160206C20F480502064206CE7
:10066000C00503D4206C40F0010020642046FFF751
:10067000CBFE21686FF00C000860206801684268BA
:1006800011F0010FC2F380120ED06AB10068C007EA
:100690000AD0206C40F480302064204600F046F8F8
:1006A00021686FF001000860206801684268C1F3AA
:1006B0004011C2F3806200290DD0002A0BD0616C7A
:1006C00041F0020161646FF0200505602046FFF7EC
:1006D00061FF2068056070BD70B504004FF0000533
:1006E00003D0206C002610B107E0012070BD204629
:1006F00000F01EF8666484F83C60206CC00610D4DC
:10070000206C20F4885040F0020020642046FFF75F
:10071000E5FD6664206C20F0020040F001002064DA
:1007200000E0012584F83C60284670BD7047000059
:1007300010B586B0044614216846FFF78DFD1549B3
:100740002068884224D114480021026842F40072D3
:100750000260006800F4007005900F4814380268C9
:1007600042F001020260006800F0010005902020C4
:1007700000900320CDE901016946084800F0B0F877
:1007800000221146122000F00DFA122000F0FCF9B0
:1007900006B010BD00210140443802400000024074
:1007A00018B50021009190F83C20012A07D00122C1
:1007B00080F83C2002689368DB0702D011E0022039
:1007C00018BD936843F0010393602C4A2C4B1268C8
:1007D000B2FBF3F202EB420200E0521E0092002A4A
:1007E000FBD102689368DB0746D0036C40F20164DA
:1007F000A34343F48073036453685B0505D5036C1E
:1008000023F4005343F480530364036CDB0404D5E6
:10081000436C23F00603436400E0416480F83C101D
:10082000184B6FF02201116001684A68164C224390
:100830004A6059680068CA06144906D088421BD12C
:10084000816811F0405F13D016E08842F8D0104A5A
:10085000904203D1D1F80423D206F1D00D4A904240
:100860000AD1D1F8041301F01F011029E8D303E0E5
:10087000816841F080418160002018BD1400002093
:1008800040420F00002301402000000400200140EE
:10089000002101400022014090F83510022903D0C8
:1008A0008021416501207047052180F835100068DE
:1008B000016821F0010101600020704770B5044615
:1008C00000F002F90546601C02D004480078044498
:1008D00000F0FAF8401BA042FAD370BD08000020D7
:1008E0002DE9F84F00224FF0010803254FF00F0EBD
:1008F0000B6808FA02F42340A3426ED14E68012E21
:1009000005D0022E03D0112E01D0122E12D18668EE
:100910004FEA420C05FA0CF7BE43CF6807FA0CF712
:10092000374387604668A6430C79C4F300149440AB
:1009300034434460C668570005FA07FC8C6826EA11
:100940000C06BC403443C4604C68022C01D0122C0D
:1009500013D1D40800EB8404A346D4F820905407A4
:100960004FEAD46A0EFA0AF629EA06090E6906FA6F
:100970000AF646EA0906CBF8206004680E7924EAF4
:100980000C0406F00306BE40264306604C68E400F3
:100990006FD53B4C266846F480462660246822F0DA
:1009A000030604F480440094364C3444A446D4F83E
:1009B00008489607360F0EFA06F7BC43324FB84286
:1009C00001D100272EE0314FB84201D1012729E0A3
:1009D0002F4FB84202D1022724E04AE02D4FB842FF
:1009E00001D103271EE02C4FB84201D1042719E0A2
:1009F0002A4FB84201D1052714E0294FB84201D14E
:100A000006270FE0274FB84201D107270AE0264FFB
:100A1000B84201D1082705E0244FB84201D1092787
:100A200000E00A27B7402743CCF80878204E346806
:100A30004F689C43FF0300D51C4334601C4E361D99
:100A400034684F689C43BF0300D51C433460184E84
:100A5000083634684F689C43FF0200D51C4334605D
:100A6000134E0C3634684F689C43BF0200D51C43BC
:100A70003460521C102AFFF43BAFBDE8F88F000031
:100A800044380240003001400000024000040240AF
:100A900000080240000C0240001002400014024016
:100AA00000180240001C02400020024000240240C6
:100AB000003C01400069084000D0012070470AB1A5
:100AC000816170470904FBE70148806870470000B6
:100AD0000800002002488168027811448160704754
:100AE000080000200B4810B5016841F40071016056
:100AF000016841F480610160016841F48071016026
:100B0000032000F06FF8002000F006F800F024F851
:100B1000002010BD003C024070B50D4D04464FF45E
:100B20007A712878B1FBF0F00A490968B1FBF0F05E
:100B300000F004FB48B9102C07D200222146501EB9
:100B400000F030F800206C6070BD012070BD000026
:100B500008000020140000200A4808B5016841F48C
:100B600080410160006800F4804000900548001F4B
:100B7000016841F080510160006800F080500090F1
:100B800008BD000044380240002809DB00F01F02C5
:100B9000012191404009800000F1E020C0F80011DF
:100BA00070470000F0B40E4B1B680C46C3F30223E1
:100BB000C3F10705042D00D90425191D072901D209
:100BC000002300E0DB1E012606FA05F1491E214044
:100BD00099409E40761E16403143F0BC00F0D5BDD2
:100BE0000CED00E0064900F0070208684FF6FF032D
:100BF000184040EA0220034A104308607047000092
:100C00000CED00E00000FA052DE9F0470E46050066
:100C100065D0DFF81481D8F80000F7B200F00F00BB
:100C2000B04207D288F80070D8F8000000F00F003A
:100C3000B04254D128683D4C810712D5400703D5F6
:100C4000206840F4E05020602878000703D5206831
:100C500040F4604020602068A96820F0F00008435C
:100C600020602878C0072DD03049686808390128ED
:100C700012D0022813D0032811D00968890700294F
:100C80002DDA216821F0030101432160FFF71CFFE9
:100C9000814641F2883A0EE009688903EFE7096866
:100CA0008901ECE7FFF710FFA0EB0901514502D9DC
:100CB0000320BDE8F0872068696800F00C00B0EB05
:100CC000810FEFD1D8F80010404601F00F01B1427A
:100CD00007D90770006800F00F00B04201D0012072
:100CE000E7E72878400705D52068E96820F4E05058
:100CF000084320602878000706D52068296920F479
:100D0000604040EAC100206000F038F82168084ADD
:100D1000C1F30311515CC8400649086006480068E9
:100D2000FFF7FAFE0020C4E7003C0240083802400A
:100D3000AC180008140000200C00002004480549ED
:100D400000680968044AC1F38221515CC8407047B9
:100D50001400002008380240BC1800080448054967
:100D600000680968044AC1F34231515CC8407047C9
:100D70001400002008380240BC180008154810B5BF
:100D8000006810F00C02144813D01449042A0FD044
:100D9000082A0ED10F4C241F2268236802F03F025C
:100DA0005B0207D52068C0F38810A0FB010106E0B4
:100DB000084610BD2168C1F38811A1FB0001002382
:100DC000FFF712FA2168C1F30141491C4900B0FB49
:100DD000F1F010BD083802400024F40040787D0195
:100DE0002DE9F84F04006ED02078DFF83C93C0075F
:100DF000A9F104054AD009F104000168C1F3810199
:100E0000012908D00068C0F3810002280AD1D9F86E
:100E10000000400206D52868800337D560680028A6
:100E2000E1D033E06068B0F5803F10D0B0F5A02F7E
:100E3000286810D020F480302860286820F48020B2
:100E400028606068A8B1FFF73FFE06460DE02868FD
:100E500040F48030F4E740F480202860F7E700BFDA
:100E6000FFF732FE801B642873D828688003F7D50B
:100E70000CE0FFF729FE064605E000BFFFF724FE61
:100E8000801B6428F0D828688003F7D42078DFF826
:100E90009C8280074FF0000A3ED5A348001D0168E0
:100EA00011F00C0F08D00068C0F3810002280BD1AC
:100EB000D9F80000400207D42868800716D5E068FA
:100EC000012800D112E02BE1E068B8B10120C8F898
:100ED0000000FFF7F9FD064605E000BFFFF7F4FD4F
:100EE000801B0228C0D828688007F7D528682169A8
:100EF00020F0F80040EAC10028600DE0C8F800A02A
:100F0000FFF7E2FD064604E0FFF7DEFD801B022846
:100F10001FD828688007F7D42078000722D5824E92
:100F200083486169703671B101210160FFF7CCFD22
:100F3000074604E0FFF7C8FDC01B022809D8306847
:100F40008007F7D50EE0C0F800A0FFF7BDFD07460B
:100F500005E082E0FFF7B8FDC01B02287DD83068AD
:100F60008007F7D42078400768D5DFF8BCB10027A8
:100F70000BF13C0BDBF80000C0000BD4DBF80010D9
:100F800041F08051CBF80010DBF80000012700F0A1
:100F900080500090674E3068C00510D4306840F42F
:100FA00080703060FFF790FD009005E0FFF78CFD4A
:100FB0000099401A022850D83068C005F6D55A4E1C
:100FC000A0686C3601280FD00528306810D020F0BA
:100FD00001003060306820F004003060A068B8B1D3
:100FE000FFF772FD00900FE0306840F00100F4E779
:100FF00040F004003060F7E7FFF766FD0099411A02
:1010000041F28830814266D830688007F4D50EE01E
:10101000FFF75AFD009007E0FFF756FD0099411ACF
:1010200041F28830814256D830688007F4D42FB11D
:10103000DBF8001021F08051CBF80010A069C8B394
:101040003949091D0968C1F3810102294AD00228E2
:10105000504607D0C8F8600000E03CE0FFF734FDE0
:1010600004463BE04746C8F86000FFF72DFD064602
:1010700005E000BFFFF728FD801B02282BD8286859
:101080008001F7D4D4E907010843A16A2A4A490834
:1010900002EB0141626A41EA8211084394F82C1084
:1010A00040EA0161C9F8001001203866FFF70CFD25
:1010B000044606E036E000BFFFF706FD001B0228ED
:1010C00009D828688001F7D52CE000BFFFF7FCFCA9
:1010D000001B022802D90320BDE8F88F2868800190
:1010E000F4D41FE00128F7D0D9F80000E26900F439
:1010F0008001914214D1226A00F03F0191420FD148
:1011000047F6C071626A0140914209D1A26A00F4B7
:101110004031914204D1E16A00F07060884201D010
:101120000120D9E70020D7E70438024000004742F9
:10113000800E4742007000400000FFFF10B5401EC7
:10114000B0F1807F01D3012010BD4FF0E024606139
:101150000F21601700F019FB0020A061072020611B
:10116000002010BD7047000070B50268044610688A
:10117000D168536910F00F0F52D003F0010501F44C
:1011800090762E435FD0C20705D0CA0503D5E26B27
:1011900042F00102E263420705D5DA0703D0E26BB1
:1011A00042F00202E263820705D5DA0703D0E26B60
:1011B00042F00402E263020707D501F020022A434D
:1011C00003D0E26B42F00802E263E26B002A33D004
:1011D000800604D5880602D5204600F0BDF92068B7
:1011E0004069E16BC0F38010090700D428B32046A2
:1011F00000F0A4F92068416949061AD5416921F037
:1012000040014161606BA0B11B490165606BFFF754
:1012100043FB002810D0606B016DBDE870400847AB
:10122000830610D58B060ED52046BDE8704000F031
:1012300093B92046FFF796FF70BD2046FFF792FF57
:101240000020E06370BD030606D50B0604D52046DA
:10125000BDE8704000F060BA4006F3D54806F1D50D
:10126000D168204621F04001D160202184F8391056
:1012700000F094F870BD00002D15000870B5040052
:1012800004D094F83900002510B106E0012070BDAB
:1012900084F83850204600F023F8242084F83900E0
:1012A0002068C16821F40051C160204600F0A0F917
:1012B0002068016921F4904101612068416921F0B1
:1012C0002A0141612068C16841F40051C160E563B1
:1012D000202084F8390084F83A00002070BD000016
:1012E00010B586B0044614216846FEF7B5FF1849CC
:1012F0002068884229D117480021026842F0100274
:101300000260006800F0100005901248143802686E
:1013100042F001020260006800F0010005904FF405
:10132000C06000900220CDE9010103200390072056
:10133000049069460848FFF7D3FA00221146252099
:10134000FFF730FC2520FFF71FFC06B010BD0000A2
:10135000001001404438024000000240704790F8FD
:101360003930202B18D1A9B1A2B190F83830012B17
:1013700012D001628284C2840021C163212280F8DC
:10138000392080F838100068C16841F08001C160E0
:101390000020704701207047022070477047FEE729
:1013A0001FB500211548009101910291124A039145
:1013B000C0E9002181600161017680F82010104AA7
:1013C000C0E90A210124C461C16080F83010446181
:1013D000FFF782F908B172B6FEE70520CDE90004F7
:1013E0000320029069460548FFF710F8002801D055
:1013F00072B6FEE71FBD000000210140180000206A
:101400000100000FF0B587B014216846FEF724FFF5
:1014100019480024016841F010010160016801F0E1
:1014200010010591016841F001010160016801F0BE
:1014300001010591016841F040010160006801224D
:1014400000F040000D4F5603059031463846FFF737
:1014500036FB542001258DE8310069460848FFF726
:101460003FFA0096CDE90154694638460394FFF7E8
:1014700037FA07B0F0BD00003038024000180240D3
:1014800000100240FEE7FEE770477047FFF722BBFF
:1014900010B592B030216846FEF7DEFE14210CA88C
:1014A000FEF7DAFE18480024016841F0805101601F
:1014B000006800F0805011901448016821F4404108
:1014C00041F4804101600068069400F440401190AE
:1014D0000220009001200390102004906846FFF73E
:1014E0007FFC08B172B6FEE70F20CDE90C040E9424
:1014F0000F9400210CA81094FFF786FB002801D060
:1015000072B6FEE712B010BD4038024000700040D5
:101510000548016841F47001016003494FF0006023
:10152000803908607047000088ED00E010B5806BDE
:101530000021C185C184FFF715FE10BD0168CA688E
:1015400022F49072CA6001684A6922F001024A617D
:10155000202180F83A10704710B590F83A102229EF
:1015600001D0022010BD8168B1F5805F11D0016902
:10157000002901681FD0496801F07F03816A4A1C75
:1015800082620B70C18D491E0904090CC18518D0F7
:101590002BE00269816A002A0268526805D0D2B243
:1015A0000A80816A491C8162ECE7C2F308020A8062
:1015B000816A891CF7E74A68816A4B1C83620A705A
:1015C000E0E70168CA6822F02002CA600168CA68C0
:1015D00022F48072CA6001684A6922F001024A61FD
:1015E000202180F83A10FFF7B9FE002010BD00005E
:1015F0002DE9F041044600680169E26821F4405198
:10160000114301612169A068E269084361691143DE
:1016100008432168CA6849F20C639A430243CA60CE
:1016200020684169A26921F4407111434161E06978
:10163000192764253226B0F5004F354A3549206810
:101640004FF0000806D0884201D0904236D1FFF713
:1016500085FB35E0884201D0904202D1FFF77EFB46
:1016600001E0FFF76BFB61684A18A0FB070148EB3C
:101670000803FEF7B9FD0146B0FBF5F00201B1FB2E
:10168000F5F06FF01803584301EB800006EBC00043
:10169000B0FBF5F000F0F80002EB4002B1FBF5F012
:1016A000584301EB800006EBC000B0FBF5F000F002
:1016B0000700216810448860BDE8F081FFF73EFB19
:1016C00061688B0F8A00A0FB0701FEF78DFD0146C4
:1016D000B0FBF5F06FF01802504301EB800006EB11
:1016E0000010B0FBF5F000F0F002B1FBF5F002EBFA
:1016F0000012B1FBF5F06FF01803584301EB8000C6
:1017000006EB0010B0FBF5F000F00F00D1E7000091
:10171000001401400010014090F83910212901D037
:10172000022070478168B1F5805F016A0BD04A1CC6
:101730000262026809785160C18C491E0904090CD3
:10174000C1840ED017E009880268C1F30801516016
:1017500001690029016A02D0491C0162ECE7891C79
:10176000FBE70168CA6822F08002CA600068C168AD
:1017700041F04001C1600020704700000148FFF7C0
:10178000F3BC000060000020FEE70907090E0028F6
:1017900004DB00F1E02080F80014704700F00F0037
:1017A00000F1E02080F8141D704702E008C8121F05
:1017B00008C1002AFAD170477047002001E001C13A
:1017C000121F002AFBD17047FFF78CF9FFF760FE6C
:1017D000FFF718FE314830490C2201604FF41651D2
:1017E000416000218160C160C0E904128161C16172
:1017F000FFF744FD08B172B6FEE7FFF7D1FDDFF851
:10180000A080284D284C4FF4FA764FF40057234817
:101810004838FEF7C5FF3220FFF750F86068B04245
:1018200001D2752000E06420207001221E491B486F
:10183000FFF795FD3220FFF741F840212846FFF7DA
:1018400039F908B1002200E0012239464046FFF78D
:1018500036F910212846FFF72DF901280AD16C200E
:10186000114960700122491C0C48FFF778FD3220B5
:10187000FFF724F804212846FFF71CF90128C6D1F8
:101880007220094960700122491C0448FFF767FD76
:101890003220FFF713F8BAE7001001406000002083
:1018A000001802400010024000000020000000006C
:1018B0000000000001020304060708090000000000
:1018C00001020304E41800080000002018000000D2
:1018D000AA170008FC18000818000020880400005F
:1018E000BA1700080000000000000000010000001E
:0C18F00010000000000000000024F400C4
:04000005080001AD41
:00000001FF
